{
    "_format": "hh-sol-artifact-1",
    "contractName": "WavePortal",
    "sourceName": "contracts/WavePortal.sol",
    "abi": [
        {
            "anonymous": false,
            "inputs": [
                {
                    "indexed": false,
                    "internalType": "address",
                    "name": "from",
                    "type": "address"
                },
                {
                    "indexed": false,
                    "internalType": "string",
                    "name": "message",
                    "type": "string"
                },
                {
                    "indexed": false,
                    "internalType": "uint256",
                    "name": "time",
                    "type": "uint256"
                }
            ],
            "name": "newWave",
            "type": "event"
        },
        {
            "inputs": [],
            "name": "Allwaves",
            "outputs": [
                {
                    "components": [
                        {
                            "internalType": "address",
                            "name": "from",
                            "type": "address"
                        },
                        {
                            "internalType": "string",
                            "name": "message",
                            "type": "string"
                        },
                        {
                            "internalType": "uint256",
                            "name": "time",
                            "type": "uint256"
                        }
                    ],
                    "internalType": "struct WavePortal.Wave[]",
                    "name": "",
                    "type": "tuple[]"
                }
            ],
            "stateMutability": "view",
            "type": "function"
        },
        {
            "inputs": [],
            "name": "TotalWaves",
            "outputs": [
                {
                    "internalType": "uint256",
                    "name": "",
                    "type": "uint256"
                }
            ],
            "stateMutability": "nonpayable",
            "type": "function"
        },
        {
            "inputs": [],
            "name": "totalwaves",
            "outputs": [
                {
                    "internalType": "uint256",
                    "name": "",
                    "type": "uint256"
                }
            ],
            "stateMutability": "view",
            "type": "function"
        },
        {
            "inputs": [
                {
                    "internalType": "string",
                    "name": "_message",
                    "type": "string"
                }
            ],
            "name": "wave",
            "outputs": [],
            "stateMutability": "nonpayable",
            "type": "function"
        }
    ],
    "bytecode": "0x608060405234801561001057600080fd5b50610935806100206000396000f3fe608060405234801561001057600080fd5b506004361061004c5760003560e01c806315df30a314610051578063449d46c01461006f578063bed44c671461008b578063f9e9a443146100a9575b600080fd5b6100596100c7565b6040516100669190610679565b60405180910390f35b61008960048036038101906100849190610451565b6100d0565b005b6100936101ef565b6040516100a09190610657565b60405180910390f35b6100b1610340565b6040516100be9190610679565b60405180910390f35b60008054905090565b60016000546100df919061075b565b600081905550600160405180606001604052803373ffffffffffffffffffffffffffffffffffffffff16815260200183815260200142815250908060018154018082558091505060019003906000526020600020906003020160009091909190915060008201518160000160006101000a81548173ffffffffffffffffffffffffffffffffffffffff021916908373ffffffffffffffffffffffffffffffffffffffff16021790555060208201518160010190805190602001906101a4929190610346565b506040820151816002015550507fda01269cce08d780a2a4aa49d71774e3b7f47846c090e2cafaf1a70ea39959a03382426040516101e493929190610619565b60405180910390a150565b60606001805480602002602001604051908101604052809291908181526020016000905b8282101561033757838290600052602060002090600302016040518060600160405290816000820160009054906101000a900473ffffffffffffffffffffffffffffffffffffffff1673ffffffffffffffffffffffffffffffffffffffff1673ffffffffffffffffffffffffffffffffffffffff16815260200160018201805461029c9061082f565b80601f01602080910402602001604051908101604052809291908181526020018280546102c89061082f565b80156103155780601f106102ea57610100808354040283529160200191610315565b820191906000526020600020905b8154815290600101906020018083116102f857829003601f168201915b5050505050815260200160028201548152505081526020019060010190610213565b50505050905090565b60005481565b8280546103529061082f565b90600052602060002090601f01602090048101928261037457600085556103bb565b82601f1061038d57805160ff19168380011785556103bb565b828001600101855582156103bb579182015b828111156103ba57825182559160200191906001019061039f565b5b5090506103c891906103cc565b5090565b5b808211156103e55760008160009055506001016103cd565b5090565b60006103fc6103f7846106c5565b610694565b90508281526020810184848401111561041457600080fd5b61041f8482856107ed565b509392505050565b600082601f83011261043857600080fd5b81356104488482602086016103e9565b91505092915050565b60006020828403121561046357600080fd5b600082013567ffffffffffffffff81111561047d57600080fd5b61048984828501610427565b91505092915050565b600061049e83836105ab565b905092915050565b6104af816107b1565b82525050565b6104be816107b1565b82525050565b60006104cf82610705565b6104d98185610728565b9350836020820285016104eb856106f5565b8060005b8581101561052757848403895281516105088582610492565b94506105138361071b565b925060208a019950506001810190506104ef565b50829750879550505050505092915050565b600061054482610710565b61054e8185610739565b935061055e8185602086016107fc565b610567816108ee565b840191505092915050565b600061057d82610710565b610587818561074a565b93506105978185602086016107fc565b6105a0816108ee565b840191505092915050565b60006060830160008301516105c360008601826104a6565b50602083015184820360208601526105db8282610539565b91505060408301516105f060408601826105fb565b508091505092915050565b610604816107e3565b82525050565b610613816107e3565b82525050565b600060608201905061062e60008301866104b5565b81810360208301526106408185610572565b905061064f604083018461060a565b949350505050565b6000602082019050818103600083015261067181846104c4565b905092915050565b600060208201905061068e600083018461060a565b92915050565b6000604051905081810181811067ffffffffffffffff821117156106bb576106ba6108bf565b5b8060405250919050565b600067ffffffffffffffff8211156106e0576106df6108bf565b5b601f19601f8301169050602081019050919050565b6000819050602082019050919050565b600081519050919050565b600081519050919050565b6000602082019050919050565b600082825260208201905092915050565b600082825260208201905092915050565b600082825260208201905092915050565b6000610766826107e3565b9150610771836107e3565b9250827fffffffffffffffffffffffffffffffffffffffffffffffffffffffffffffffff038211156107a6576107a5610861565b5b828201905092915050565b60006107bc826107c3565b9050919050565b600073ffffffffffffffffffffffffffffffffffffffff82169050919050565b6000819050919050565b82818337600083830152505050565b60005b8381101561081a5780820151818401526020810190506107ff565b83811115610829576000848401525b50505050565b6000600282049050600182168061084757607f821691505b6020821081141561085b5761085a610890565b5b50919050565b7f4e487b7100000000000000000000000000000000000000000000000000000000600052601160045260246000fd5b7f4e487b7100000000000000000000000000000000000000000000000000000000600052602260045260246000fd5b7f4e487b7100000000000000000000000000000000000000000000000000000000600052604160045260246000fd5b6000601f19601f830116905091905056fea26469706673582212205b219bd4f2cbf3fefa62a524ea5803aed7eddb6aa30215b3fe20cf3d62b3d13d64736f6c63430008000033",
    "linkReferences": {},
    "deployedLinkReferences": {}
}